:020000040800F2
:1000000000C00020150200083D0F0008490F00083D
:1000100001020008590F0008610F000800000000ED
:10002000000000000000000000000000690F000850
:10003000750F000800000000810F00088D0F0008F8
:100040000102000801020008010200080102000884
:100050000102000801020008010200080102000874
:100060000102000801020008010200080102000864
:100070000102000801020008010200080102000854
:10008000010200080102000801020008000000004F
:100090000000000000000000000000000102000855
:1000A0000102000801020008010200080102000824
:1000B0000102000801020008010200080102000814
:1000C0000102000801020008010200080102000804
:1000D00001020008010200080102000801020008F4
:1000E00001020008010200080102000801020008E4
:1000F00001020008010200080000000001020008DF
:1001000001020008000000000102000801020008CE
:1001100001020008010200080102000801020008B3
:1001200001020008010200080102000801020008A3
:1001300001020008000000000000000000000000B4
:1001400000000000000000000000000000000000AF
:10015000000000000000000000000000000000009F
:10016000000000000000000000000000000000008F
:10017000000000000000000000000000000000007F
:10018000000000000000000000000000000000006F
:10019000000000000000000000000000000000005F
:1001A000000000000000000000000000000000004F
:1001B000000000000000000000000000000000003F
:1001C0000000000000000000000000005FF808F1DF
:1001D00040F22813C2F200031A780AB901201870FD
:1001E000704700BF40F22410C2F2000008B5036857
:1001F0002BB140F20003C0F2000303B1984708BDE1
:1002000080B400AFFEE700BF80B400AFBD4680BC45
:10021000704700BF80B582B000AF154B7B60154BB7
:100220003B600BE07B681A683B681A603B6803F12F
:1002300004033B607B6803F104037B603A680E4B68
:100240009A42EFD30D4B3B6007E03B684FF0000252
:100250001A603B6803F104033B603A68084B9A421A
:10026000F3D300F00FF8FFF7CFFF00F029F9FEE716
:1002700034C00008000000201C01002028010020DC
:100280003C02002080B500AF174B174A126842F0BD
:1002900001021A60144A144B5968144B01EA030313
:1002A0005360114A104B1B6823F0847323F480338E
:1002B00013600D4B0C4A126822F480221A600A4B1C
:1002C000094A526822F4FE025A60074B4FF41F029B
:1002D0009A60054B4FF00002DA6200F07DF8044BA3
:1002E0004FF000629A6080BD001002400000FFF8ED
:1002F00000ED00E080B485B000AF4FF00003FB607C
:100300004FF00003BB604FF000037B604FF0000331
:100310003B602C4B5B6803F00C03FB60FB68042B19
:1003200007D0082B09D0002B32D1274B274A1A605F
:1003300032E0254B264A1A602EE0224B5B6803F41C
:100340007013BB601F4B5B6803F480337B60BB683A
:100350004FEA934303F10203BB607B68002B06D195
:10036000BB681B4A02FB03F2174B1A6014E0154BE3
:10037000DB6A03F00F0303F101033B60144A3B689F
:10038000B2FBF3F3BA6802FB03F20F4B1A6003E00F
:100390000D4B0E4A1A6000BF0A4B5B6803F0F00376
:1003A0004FEA13130B4AD35CDBB2FB60064B1A68AF
:1003B000FB6822FA03F2044B1A6007F11407BD46EA
:1003C00080BC7047001002400400002000127A0038
:1003D00000093D000800002080B500AF00F002F8E1
:1003E00080BD00BF80B483B000AF4FF000037B60DE
:1003F0004FF000033B60314B304A126842F48032C8
:100400001A602E4B1B6803F400333B607B6803F1DA
:1004100001037B603B68002B03D17B68B3F5A06FC1
:10042000EFD1264B1B6803F40033002B03D04FF0B1
:1004300001033B6002E04FF000033B603B68012B8F
:1004400037D11E4B1D4A52685A601C4B1B4A5268DA
:100450005A601A4B194A52685A60184B174A526828
:1004600022F47C125A60154B144A526842F49812D6
:100470005A60124B114A126842F080721A6000BF33
:100480000E4B1B6803F00073002BF9D00B4B0B4A8B
:10049000526822F003025A60084B084A526842F040
:1004A00002025A6000BF054B5B6803F00C03082B87
:1004B000F9D107F10C07BD4680BC7047001002401F
:1004C00080B500AF00F076FD00F0CEFD00F002FE3A
:1004D0000AF0D8F802E000BF00E000BF0C4B1B6838
:1004E000052BF8D100F0DCFE0A4B1B68002BF4D082
:1004F000094B1B68012B06D1064B1B68DBB2074872
:10050000194600F0A1FE034B4FF000021A60E5E728
:100510002C0100208401002018000020B4010020DC
:1005200080B483B000AF78603960FEE780B400AF7C
:10053000034B4FF001021A60BD4680BC704700BFFC
:100540001800002080B500AF0A4B4FF001021A607E
:100550004FF0030009F040FD03461A46064B1A60AF
:10056000054B1B689BB205484FF488711A460BF087
:10057000A5F980BD1C00002084010020B4010020EA
:1005800080B400AF30BFBD4680BC704780B582B03C
:1005900000AF4FF0010000F0C5FD4FF00103FB80FC
:1005A0000E4BFA881A600E4B4FF000021A800B4B6C
:1005B0000B4A12881A600B4B4FF000021A60084B6E
:1005C0004FF4E0521A80054B054A12881A604FF02A
:1005D0000003184607F10807BD4680BD405C004097
:1005E00030020020445C004080B500AF094B4FF062
:1005F00001021A60084B4FF000021A604FF0000031
:1006000000F090FD034B4FF003021A604FF000031F
:10061000184680BD405C0040445C004080B584B01A
:1006200000AF4FF00003FB604FF00003BB604FF0E2
:1006300000033B60534B1B68FB804FF00003FB60E3
:1006400011E0FB684FEA830303F1804303F5B843ED
:100650001B689BB219464C4BFA6843F82210FB68A2
:1006600003F10103FB60FB68072BEAD9FB8843F425
:100670008063FB80434BFA881A60FB8843F00103D8
:10068000FB80404BFA881A60FB8823F00103FB8053
:100690003C4BFA881A6000BF3C4B1B689BB203F4CA
:1006A0008063002BF8D0394B4FF6FF321A604FF0C1
:1006B0000003FB6010E0FB684FEA830303F1804313
:1006C00003F5B843304AF96852F8212092B21A6013
:1006D000FB6803F10103FB60FB68072BEBD9FB8888
:1006E00043F00803FB80274BFA881A60254B1B68F0
:1006F000FB80FB8843F00403FB80224BFA881A60DE
:10070000234B1B683B60224B1B68BB60BB6823F01C
:100710000303BB60BB6843F00103BB601C4BBA68BA
:100720001A601C4B1B4A126942F004021A61174BF3
:100730001B689BB203F48053002B08D1FFF720FF06
:10074000144B144A126922F004021A6116E00F4B8E
:100750004EF6FF721A600B4B1B68FB80FB8823F080
:100760000803FB80074BFA881A60094B3A681A6045
:10077000084B084A126922F004021A6107F11007B7
:10078000BD4680BD405C00408C010020445C0040C0
:100790000070004000ED00E080B582B000AF0A4B71
:1007A0001B68FB80FB8823F00403FB80064BFA8860
:1007B0001A6000F073FC044B4FF43F421A6007F1DB
:1007C0000807BD4680BD00BF405C004080B584B0D6
:1007D00000AF0346FB71FB79072B02D0464BFA7939
:1007E0001A70454B1B78DBB2052B78D801A252F862
:1007F00023F000BF0D0800082D080008430800087A
:1008000055080008790800089F0800083B4B1B6842
:10081000002B06D1FFF7C0FF374B4FF006021A70CE
:1008200066E0354B4FF005021A7061E0FFF7B4FF48
:10083000314B4FF004021A70304B4FF001021A6036
:1008400056E02D4B4FF002025A702B4B4FF0030233
:100850001A704DE0284B5B78DBB203F1FF33DAB25C
:10086000254B5A70244B5B78DBB2002B3DD1224BD9
:100870004FF004021A703BE0214B1B68FB81FB899F
:1008800043F01003FB811E4BFA891A601A4B4FF09C
:1008900005021A70184B4FF00A025A7028E0164BE6
:1008A0005B78DBB203F1FF33DAB2134B5A70124BB1
:1008B0005B78DBB2002B1AD1114B1B68FB81FB89E3
:1008C00023F01003FB810E4BFA891A600A4B4FF09C
:1008D00006021A70094B4FF000021A6008E0064B3E
:1008E0004FF006021A7000BF02E000BF00E000BF38
:1008F00007F11007BD4680BD8801002030010020AF
:10090000405C004080B58AB000AF4FF000037B62CE
:10091000884B1B689AB2884B1A80874B1B889BB206
:1009200003F40072854B1B8802EA0303002B0BD0F3
:10093000804B4FF6FF521A60814B1B78DBB203F1FC
:100940000103DAB27E4B1A707B4B1B889BB203F417
:1009500000427A4B1B8802EA0303002B01D00AF005
:10096000E3FF754B1B889BB203F48062734B1B88BB
:1009700002EA0303002B06D06E4B4FF6FF321A60DB
:10098000704B5B6898476C4B1B889BB203F400521A
:100990006A4B1B8802EA0303002B03D0654B4DF61C
:1009A000FF721A60644B1B889BB203F48052634B46
:1009B0001B8802EA0303002B07D05E4B4EF6FF7242
:1009C0001A604FF00000FFF701FF5B4B1B889BB2E2
:1009D00003F40062594B1B8802EA0303002B0FD07B
:1009E000594B1B78DBB2002B02D0FFF717FE03E058
:1009F0004FF00200FFF7EAFE4E4B4FF2FF721A6013
:100A00004D4B1B889BB203F480724C4B1B8802EA4F
:100A10000303002B00F08980464B4FF6FF621A60FB
:100A20004A4B1B689BB21BB2002B76DA484B1B6803
:100A300003F10102464B1A60454B1B68032B70D92A
:100A4000444B1B689BB203F00803002B69D1414B58
:100A50001B689BB21A46404B1A604FF000037B6242
:100A600015E07B6A4FEA830303F1804303F5B84343
:100A70001B689BB21A467B6A4FEA830307F1280181
:100A8000CB1843F8242C7B6A03F101037B627B6A59
:100A9000072BE6D9304B1B6843F001022E4B1A603E
:100AA0002C4B2D4A126892B21A602B4B1B6823F014
:100AB0000102294B1A60274B274A126892B21A602A
:100AC00000BF1C4B1B689BB203F48063002BF8D063
:100AD000184B4FF6FF321A604FF000037B6214E0B0
:100AE0007B6A4FEA830303F1804303F5B8437A6AD4
:100AF0004FEA820207F128018A1852F8242C92B298
:100B00001A607B6A03F101037B627B6A072BE7D9DA
:100B10000F4B4FF000021A6003E00D4B4FF0000244
:100B20001A604FF00700FFF751FE07F12807BD4696
:100B300080BD00BF445C0040AC01002030020020BA
:100B400034010020840000203C000020485C00406C
:100B500038010020405C00403C01002080B500AF1F
:100B600000F0FAFA064B1B684FF000029A72FFF78A
:100B70000DFD0AF0F3FD034B4FF000021A6080BD3B
:100B80002C0200202C01002080B500AF484B1B68D0
:100B90004FF000029A72464B1B68464AD2795A724D
:100BA000434B1B684FF00002DA724FF0000008F070
:100BB000ADFC4FF000004FF4007108F0F1FC4FF075
:100BC00000004FF0100108F02BFD4FF000004FF037
:100BD000400109F0DFF84FF000004FF0800109F00C
:100BE000B5F84FF0000008F09DFE334B93F82C3021
:100BF0004FF00000194609F083F94FF0000008F0AB
:100C00000DFE4FF001004FF0000108F0C9FC4FF05D
:100C100001004FF0C00109F099F84FF001004FF0CA
:100C2000200108F0FDFC4FF001004FF0000108F03A
:100C300031FD4FF002004FF4C06108F0B1FC4FF0FD
:100C400002004FF4807109F081F84FF002004FF07C
:100C5000000108F01FFD4FF002004FF0200108F0E6
:100C6000DFFC4FF003004FF0000108F099FC4FF05B
:100C700003004FF4887109F08DF84FF003004FF036
:100C8000400109F03DF94FF003004FF4405108F0E6
:100C900001FD4FF003004FF0000108F0C1FC4FF0E0
:100CA00000000AF013FD054B4FF001021A6080BDF1
:100CB0002C0200207CBD0008840000202C010020B4
:100CC00080B483B000AF074B7B607B689B7A002BBE
:100CD00003D0054B4FF005021A6007F10C07BD4623
:100CE00080BC70470C0200202C01002080B400AFB3
:100CF000034B4FF004021A60BD4680BC704700BF32
:100D00002C01002080B400AF054B1B78202B03D1B1
:100D1000034B4FF000021A70BD4680BC704700BF05
:100D20004001002080B400AFBD4680BC704700BFCA
:100D300080B584B000AF0346FB714FF00003FB6049
:100D4000FB79212B09D11A4B1B681B7803F07F0319
:100D5000212B12D1174BFB600FE0FB79202B0CD11C
:100D6000134B1B681B7803F07F03212B01D1124B1F
:100D7000FB60124B4FF020021A70FB68002B02D16F
:100D80004FF002030EE00A4B1B68FA689A61084BA9
:100D90001B684FF000025A82FB684FF00000984732
:100DA0004FF00003184607F11007BD4680BD00BF95
:100DB0002C020020CD0E0008050F00084001002085
:100DC00080B483B000AF0346FB710D4B1B681B78EA
:100DD00003F07F03212B0BD1FB79022B02D14FF0C3
:100DE000000307E0FB79222B02D14FF0000301E062
:100DF0004FF00203184607F10C07BD4680BC704750
:100E00002C02002080B582B000AF0346FB80FB8837
:100E10001846044909F05EFF0346184607F1080723
:100E2000BD4680BDD800002080B582B000AF03462B
:100E3000FB80FB881846044909F04CFF034618461E
:100E400007F10807BD4680BDE000002080B584B0F2
:100E500000AF0346FB800D4B1B68DB78FB73FB7B0D
:100E6000042B02D94FF000030AE0FB7B4FEAC302D8
:100E7000074BD318FA881046194609F02BFF034692
:100E8000184607F11007BD4680BD00BF2C020020A8
:100E9000E800002080B483B000AF02460B46FA7130
:100EA000BB71BB79002B02D04FF0020307E0FB7946
:100EB000012B02D94FF0020301E04FF00003184666
:100EC00007F10C07BD4680BC704700BF80B483B0FB
:100ED00000AF0346FB80FB88002B07D1074B1B6844
:100EE0004FF008021A824FF0000300E0044B18464E
:100EF00007F10C07BD4680BC704700BF2C020020E4
:100F00007800002080B483B000AF0346FB80FB88EC
:100F1000002B07D1074B1B684FF008021A824FF0D5
:100F2000000300E0044B184607F10C07BD4680BCE7
:100F3000704700BF2C0200207800002080B400AF72
:100F4000BD4680BC704700BF80B400AFFEE700BF65
:100F500080B400AFFEE700BF80B400AFFEE700BF83
:100F600080B400AFFEE700BF80B400AFBD4680BCD8
:100F7000704700BF80B400AFBD4680BC704700BF63
:100F800080B400AFBD4680BC704700BF80B400AFE6
:100F9000BD4680BC704700BF80B500AFFFF7B2FC14
:100FA00080BD00BF80B500AF4FF4802008F030FA5C
:100FB00080BD00BF80B582B000AF4FF008004FF099
:100FC000010102F027F94FF48043BB804FF0030387
:100FD000BB714FF01403FB7107F104031E4819465F
:100FE00000F0BEFC07F10403184600F009FE4FF4C0
:100FF000C053BB804FF00303BB714FF01803FB716C
:1010000007F104031548194600F0AAFC4FF4804389
:10101000BB804FF00203BB714FF01C03FB7107F163
:1010200004030F48194600F09BFC4FF4802008F0A1
:10103000EFF90C4B4FF480221A600A4B4FF0080274
:101040005A71084B4FF001029A71064807F0E8FF09
:1010500007F10807BD4680BD000C014000080140B3
:1010600000180140F401002080B500AF4FF00000EF
:1010700001F0FAFE4FF400004FF0010102F008F910
:1010800080BD00BF80B400AF034B4FF003021A6075
:10109000BD4680BC704700BF2C01002080B582B0E7
:1010A00000AF0A4B7B607B689B7A002B04D0084B17
:1010B0004FF005021A6003E0054B4FF001021A6081
:1010C000FFF7E0F807F10807BD4680BD0C020020DD
:1010D0002C01002080B582B000AF4FF4A06000F07A
:1010E00035FA4FF014033B714FF002037B714FF060
:1010F0000003BB714FF00103FB7107F104031846B5
:1011000000F050FA4FF02A033B714FF001037B715E
:1011100007F10403184600F045FA07F10807BD4639
:1011200080BD00BF80B582B000AF0346FB71FB7984
:10113000002B05D007484FF4804100F051FF04E038
:1011400004484FF4804100F005FF07F10807BD4651
:1011500080BD00BF000C014080B584B000AF104BD3
:101160001B68FB600F4B1B68BB600F4B1B687B60F1
:10117000FA687B68D318FB60FB68002B0BD0F8681B
:101180000A494FF0080200F015F8B86808494FF016
:10119000040200F00FF807F11007BD4680BD00BF44
:1011A000E8F7FF1FECF7FF1FF0F7FF1F22000020FA
:1011B0003200002080B487B000AFF860B9601346F9
:1011C000FB714FF00003FB754FF00003FB7531E03E
:1011D000FB684FEA1373092B0DD8FB7D4FEA4303DD
:1011E000BA68D318FA684FEA1272D2B202F130022A
:1011F000D2B21A700CE0FB7D4FEA4303BA68D318F1
:10120000FA684FEA1272D2B202F13702D2B21A7001
:10121000FB684FEA0313FB60FB7D4FEA430303F1D6
:101220000103BA68D3184FF000021A70FB7D03F176
:101230000103FB75FA7DFB799A42C9D307F11C07BC
:10124000BD4680BC704700BF80B582B000AF7860FB
:101250000B46FB70FB783F2B19D8104B4FF0000268
:101260001A60FB789BB278684FF0C0011A460AF00A
:10127000DFFAFB789BB24FF00100194608F0EAFD57
:101280004FF0010008F09EFA4FF0010301E04FF02B
:101290000003184607F10807BD4680BD180000206E
:1012A00080B500AF054B4FF000021A604FF003000D
:1012B00008F0B4FA4FF00103184680BD1C0000206E
:1012C0004FF00004EFF30984204670472346184688
:1012D000034683F3098870474FF00004EFF3088456
:1012E0002046704723461846034683F30888704714
:1012F00090B482B000AF4FF000037B60EFF3128434
:101300007C607B68184607F10807BD4690BC7047B3
:1013100080B483B000AF78607B6883F3118807F1F5
:101320000C07BD4680BC704790B482B000AF4FF050
:1013300000037B60EFF310847C607B68184607F144
:101340000807BD4690BC704780B483B000AF78609A
:101350007B6883F3108807F10C07BD4680BC70479B
:1013600090B482B000AF4FF000037B60EFF31384C2
:101370007C607B68184607F10807BD4690BC704743
:1013800080B483B000AF78607B6883F3138807F183
:101390000C07BD4680BC704790B482B000AF4FF0E0
:1013A00000037B60EFF314847C607B68184607F1D0
:1013B0000807BD4690BC704780B483B000AF78602A
:1013C0007B6883F3148807F10C07BD4680BC704727
:1013D00090B484B000AF78604FF00003FB607B688E
:1013E0001CBAFC60FB68184607F11007BD4690BCAC
:1013F000704700BF90B484B000AF0346FB804FF04D
:101400000003FB60FB885CBAFC60FB68184607F1D0
:101410001007BD4690BC704790B484B000AF03463F
:10142000FB804FF00003FB60FB88DCBAFC60FB68CC
:10143000184607F11007BD4690BC704790B484B0C1
:1014400000AF78604FF00003FB607B6893FAA3F471
:10145000FC60FB68184607F11007BD4690BC70475A
:1014600090B484B000AF78604FF00003FB737B68EA
:10147000D3E84F4FFC73FB7B184607F11007BD46BE
:1014800090BC704790B484B000AF78604FF0000318
:10149000FB817B68D3E85F4FFC81FB89184607F12D
:1014A0001007BD4690BC704790B484B000AF786020
:1014B0004FF00003FB607B6853E8004FFC60FB6863
:1014C000184607F11007BD4690BC704790B484B031
:1014D00000AF03463960FB714FF00003FB603B68CF
:1014E000FA79C3E8442FFC60FB68184607F110073F
:1014F000BD4690BC704700BF90B484B000AF0346B7
:101500003960FB804FF00003FB603B68FA88C3E85A
:10151000542FFC60FB68184607F11007BD4690BCCD
:10152000704700BF90B484B000AF786039604FF06E
:101530000003FB603B687A6843E80024FC60FB68BA
:10154000184607F11007BD4690BC704780B582B0C1
:1015500000AF78607B68B3F5E06F14D07B68B3F5BB
:10156000C06F10D07B68B3F5A06F0CD07B68B3F56B
:10157000806F08D07B68B3F5407F04D007484FF0F8
:101580006301FEF7CDFF064A7B6843F0BE6343F478
:101590002023D36007F10807BD4680BD20BE0008A8
:1015A00000ED00E080B586B000AF78604FF000033A
:1015B0007B614FF000033B614FF00F03FB607B68E2
:1015C000DB78002B08D07B68DB78012B04D038480F
:1015D0004FF07501FEF7A4FF7B685B780F2B04D9F1
:1015E00033484FF07601FEF79BFF7B689B780F2B0B
:1015F00004D92F484FF07701FEF792FF7B68DB7824
:10160000002B3FD02B4BDB686FEA030303F4E0634E
:101610004FEA13237B617B69C3F104033B617B6960
:10162000FA6822FA03F3FB607B685B781A463B6931
:1016300002FA03F37B617B689B781A46FB6802EA37
:1016400003037A6942EA03037B617B694FEA031370
:101650007B6119497B681B787A69D2B2CB1883F811
:101660000023154B7A6812784FEA5212D2B2796889
:10167000097801F01F014FF0010000FA01F143F871
:10168000221011E00C4B7A6812784FEA5212D2B253
:101690007968097801F01F014FF0010000FA01F1AB
:1016A00002F1200243F8221007F11807BD4680BD61
:1016B00020BE000800ED00E000E100E080B582B04F
:1016C00000AF786039607B68B3F1005F08D07B6859
:1016D000B3F1006F04D00D484FF09F01FEF720FFDB
:1016E0003A680B4B9A4204D908484FF0A001FEF724
:1016F00017FF084A3B6823F0604323F07F037968B3
:101700000B43936007F10807BD4680BD20BE00086B
:10171000FEFF0F0000ED00E080B582B000AF024692
:101720000B46FA71BB71FB79102B0AD0FB79042BA5
:1017300007D0FB79022B04D013484FF0B201FEF71B
:10174000EFFEBB79002B07D0BB79012B04D00E48EC
:101750004FF0B301FEF7E4FEBB79002B07D00B4B33
:101760000A4A1169FA7941EA02021A6108E0074B54
:10177000064A1169FA796FEA020201EA02021A6165
:1017800007F10807BD4680BD20BE000800ED00E05F
:1017900080B582B000AF78607B68042B08D07B688E
:1017A00013F1050F04D00C484FF0CA01FEF7B8FE44
:1017B0007B68042B06D1094B084A126842F00402E8
:1017C0001A6005E0054B054A126822F004021A600F
:1017D00007F10807BD4680BD20BE000810E000E00C
:1017E00080B582B000AF78607A684D4B9A421CD0C9
:1017F0007A684C4B9A4218D07A684B4B9A4214D074
:101800007A684A4B9A4210D07A68494B9A420CD077
:101810007A68484B9A4208D07A68474B9A4204D07B
:1018200046484FF06F01FEF77BFE7A683C4B9A42C8
:101830000CD14FF004004FF0010101F067FD4FF0B3
:1018400004004FF0000101F061FD64E07A68354B5F
:101850009A420CD14FF008004FF0010101F056FD03
:101860004FF008004FF0000101F050FD53E07A689E
:101870002D4B9A420CD14FF010004FF0010101F0B6
:1018800045FD4FF010004FF0000101F03FFD42E038
:101890007A68264B9A420CD14FF020004FF001019C
:1018A00001F034FD4FF020004FF0000101F02EFD5B
:1018B00031E07A681E4B9A420CD14FF040004FF055
:1018C000010101F023FD4FF040004FF0000101F055
:1018D0001DFD20E07A68174B9A420CD14FF0800032
:1018E0004FF0010101F012FD4FF080004FF00001B8
:1018F00001F00CFD0FE07A680F4B9A420BD14FF4C8
:1019000080704FF0010101F001FD4FF480704FF045
:10191000000101F0FBFC07F10807BD4680BD00BFD8
:1019200000080140000C014000100140001401407B
:1019300000180140001C0140002001407CBE00084E
:1019400080B500AF4FF001004FF0010101F0DEFC67
:101950004FF001004FF0000101F0D8FC80BD00BF46
:1019600080B588B000AF786039604FF00003FB614C
:101970004FF000033B614FF00003BB614FF00003E9
:10198000FB604FF000037B614FF00003BB607A689F
:10199000694B9A421CD07A68684B9A4218D07A6890
:1019A000674B9A4214D07A68664B9A4210D07A6894
:1019B000654B9A420CD07A68644B9A4208D07A6898
:1019C000634B9A4204D063484FF0B201FEF7A8FD82
:1019D0003B68DB78002B20D03B68DB78042B1CD0E5
:1019E0003B68DB78282B18D03B68DB78482B14D079
:1019F0003B68DB78142B10D03B68DB78102B0CD0C5
:101A00003B68DB781C2B08D03B68DB78182B04D0B4
:101A100050484FF0B301FEF783FD3B681B88002B55
:101A200004D14C484FF0B401FEF77AFD3B68DB78F7
:101A300003F00F03FB613B68DB7803F01003002B1E
:101A400016D03B689B78012B0CD03B689B78022B0F
:101A500008D03B689B78032B04D03E484FF0BB0175
:101A6000FEF75EFD3B689B78FA6942EA0303FB617F
:101A70003B681B8803F0FF03002B51D07B681B6879
:101A80007B614FF00003BB6144E0BB694FF0010292
:101A900002FA03F3FB603B681B881A46FB6802EA04
:101AA00003033B613A69FB689A422FD1BB694FEA55
:101AB0008303FB60FB684FF00F0202FA03F3BB6085
:101AC000BB686FEA03037A6902EA03037B61FB6880
:101AD000FA6902FA03F37A6942EA03037B613B681D
:101AE000DB78282B07D1BB694FF0010202FA03F221
:101AF0007B685A610AE03B68DB78482B06D1BB69FA
:101B00004FF0010202FA03F27B681A61BB6903F12C
:101B10000103BB61BB69072BB7D97B687A691A607F
:101B20003B681B88FF2B67D97B685B687B614FF044
:101B30000003BB615AE000BF00080140000C0140F7
:101B4000001001400014014000180140001C014039
:101B5000002001407CBE0008BB6903F108034FF080
:101B6000010202FA03F3FB603B681B881A46FB681C
:101B700002EA03033B613A69FB689A4232D1BB69CE
:101B80004FEA8303FB60FB684FF00F0202FA03F396
:101B9000BB60BB686FEA03037A6902EA03037B61F7
:101BA000FB68FA6902FA03F37A6942EA03037B618C
:101BB0003B68DB78282B08D1BB6903F108034FF0A1
:101BC000010202FA03F27B685A613B68DB78482B1A
:101BD00008D1BB6903F108034FF0010202FA03F2D6
:101BE0007B681A61BB6903F10103BB61BB69072B09
:101BF000B2D97B687A695A6007F12007BD4680BD7B
:101C000080B483B000AF78607B684FF6FF721A80B3
:101C10007B684FF002029A707B684FF00402DA7022
:101C200007F10C07BD4680BC704700BF80B584B08B
:101C300000AF78600B467B804FF00003FB737A683F
:101C4000384B9A421CD07A68374B9A4218D07A683F
:101C5000364B9A4214D07A68354B9A4210D07A6843
:101C6000344B9A420CD07A68334B9A4208D07A6847
:101C7000324B9A4204D032484FF48F71FEF750FC39
:101C80007B88012B39D07B88022B36D07B88042BB4
:101C900033D07B88082B30D07B88102B2DD07B88CD
:101CA000202B2AD07B88402B27D07B88802B24D0E8
:101CB0007B88B3F5807F20D07B88B3F5007F1CD074
:101CC0007B88B3F5806F18D07B88B3F5006F14D094
:101CD0007B88B3F5805F10D07B88B3F5005F0CD0B4
:101CE0007B88B3F5804F08D07B88B3F5004F04D0D4
:101CF000134840F21F11FEF713FC7B689A687B883B
:101D000002EA0303002B03D04FF00103FB7302E050
:101D10004FF00003FB73FB7B184607F11007BD462D
:101D200080BD00BF00080140000C014000100140D0
:101D30000014014000180140001C01400020014037
:101D40007CBE000880B582B000AF78607A68144B22
:101D50009A421CD07A68134B9A4218D07A68124B78
:101D60009A4214D07A68114B9A4210D07A68104B7C
:101D70009A420CD07A680F4B9A4208D07A680E4B80
:101D80009A4204D00D484FF49A71FEF7C9FB7B6864
:101D90009B689BB2184607F10807BD4680BD00BF8F
:101DA00000080140000C01400010014000140140F7
:101DB00000180140001C0140002001407CBE0008CA
:101DC00080B584B000AF78600B467B804FF0000395
:101DD000FB737A68384B9A421CD07A68374B9A4228
:101DE00018D07A68364B9A4214D07A68354B9A42AA
:101DF00010D07A68344B9A420CD07A68334B9A42AE
:101E000008D07A68324B9A4204D032484FF4A2711B
:101E1000FEF786FB7B88012B39D07B88022B36D0DE
:101E20007B88042B33D07B88082B30D07B88102B09
:101E30002DD07B88202B2AD07B88402B27D07B88F5
:101E4000802B24D07B88B3F5807F20D07B88B3F5AE
:101E5000007F1CD07B88B3F5806F18D07B88B3F5EA
:101E6000006F14D07B88B3F5805F10D07B88B3F50A
:101E7000005F0CD07B88B3F5804F08D07B88B3F52A
:101E8000004F04D0134840F24511FEF749FB7B6830
:101E9000DA687B8802EA0303002B03D04FF00103CA
:101EA000FB7302E04FF00003FB73FB7B184607F166
:101EB0001007BD4680BD00BF00080140000C014076
:101EC000001001400014014000180140001C0140B6
:101ED000002001407CBE000880B582B000AF786071
:101EE0007A68144B9A421CD07A68134B9A4218D0E5
:101EF0007A68124B9A4214D07A68114B9A4210D0E9
:101F00007A68104B9A420CD07A680F4B9A4208D0EC
:101F10007A680E4B9A4204D00D484FF4AD71FEF72B
:101F2000FFFA7B68DB689BB2184607F10807BD46DD
:101F300080BD00BF00080140000C014000100140BE
:101F40000014014000180140001C01400020014025
:101F50007CBE000880B582B000AF78600B467B8005
:101F60007A68174B9A421CD07A68164B9A4218D05E
:101F70007A68154B9A4214D07A68144B9A4210D062
:101F80007A68134B9A420CD07A68124B9A4208D066
:101F90007A68114B9A4204D0104840F26911FEF75A
:101FA000BFFA7B88002B04D10C484FF4B571FEF7C3
:101FB000B7FA7A887B681A6107F10807BD4680BDC9
:101FC00000080140000C01400010014000140140D5
:101FD00000180140001C0140002001407CBE0008A8
:101FE00080B582B000AF78600B467B807A68174B73
:101FF0009A421CD07A68164B9A4218D07A68154BD0
:102000009A4214D07A68144B9A4210D07A68134BD3
:102010009A420CD07A68124B9A4208D07A68114BD7
:102020009A4204D0104840F27911FEF779FA7B8881
:10203000002B04D10C484FF4BD71FEF771FA7A8879
:102040007B685A6107F10807BD4680BD0008014062
:10205000000C014000100140001401400018014034
:10206000001C0140002001407CBE000880B582B009
:1020700000AF786013460A467A807B707A683B4BE3
:102080009A421CD07A683A4B9A4218D07A68394BF7
:102090009A4214D07A68384B9A4210D07A68374BFB
:1020A0009A420CD07A68364B9A4208D07A68354BFF
:1020B0009A4204D0344840F28D11FEF731FA7B8801
:1020C000012B39D07B88022B36D07B88042B33D070
:1020D0007B88082B30D07B88102B2DD07B88202B41
:1020E0002AD07B88402B27D07B88802B24D07B88EC
:1020F000B3F5807F20D07B88B3F5007F1CD07B8830
:10210000B3F5806F18D07B88B3F5006F14D07B884F
:10211000B3F5805F10D07B88B3F5005F0CD07B886F
:10212000B3F5804F08D07B88B3F5004F04D0164834
:102130004FF4C771FEF7F4F97B78002B07D07B785A
:10214000012B04D0104840F28F11FEF7E9F97B789B
:10215000002B03D07A887B681A6102E07A887B685A
:102160005A6107F10807BD4680BD00BF0008014065
:10217000000C014000100140001401400018014013
:10218000001C0140002001407CBE000880B582B0E8
:1021900000AF78600B467B807A68134B9A421CD064
:1021A0007A68124B9A4218D07A68114B9A4214D02E
:1021B0007A68104B9A4210D07A680F4B9A420CD032
:1021C0007A680E4B9A4208D07A680D4B9A4204D036
:1021D0000C484FF4D271FEF7A3F97A887B68DA6075
:1021E00007F10807BD4680BD00080140000C014012
:1021F000001001400014014000180140001C014083
:10220000002001407CBE000880B584B000AF78603B
:102210000B467B804FF48033FB607A681F4B9A42F9
:102220001CD07A681E4B9A4218D07A681D4B9A428D
:1022300014D07A681C4B9A4210D07A681B4B9A4291
:102240000CD07A681A4B9A4208D07A68194B9A4295
:1022500004D0194840F2B511FEF762F97B88002BD3
:1022600004D115484FF4DB71FEF75AF97B88FA6800
:1022700042EA0303FB607B68FA689A617A887B68AC
:102280009A617B68FA689A617B689B69FB607B68EE
:102290009B69FB6007F11007BD4680BD0008014047
:1022A000000C0140001001400014014000180140E2
:1022B000001C0140002001407CBE000880B584B0B5
:1022C00000AF02460B46FA71BB714FF00003FB6092
:1022D000FB79002B10D0FB79012B0DD0FB79022B61
:1022E0000AD0FB79032B07D0FB79042B04D02B48B1
:1022F0004FF4E971FEF714F9BB79002B31D0BB79AB
:10230000012B2ED0BB79022B2BD0BB79032B28D0ED
:10231000BB79042B25D0BB79052B22D0BB79062BAA
:102320001FD0BB79072B1CD0BB79082B19D0BB79E8
:10233000092B16D0BB790A2B13D0BB790B2B10D0ED
:10234000BB790C2B0DD0BB790D2B0AD0BB790E2B92
:1023500007D0BB790F2B04D0104840F2D311FEF701
:10236000DFF80F4B1B68FB60FA684FF6807302EAD8
:102370000303FB60FB794FEA0313FA6842EA0303A5
:10238000FB60BB79FA6842EA0303FB60044BFA681E
:102390001A6007F11007BD4680BD00BF7CBE000873
:1023A0000000014080B582B000AF0346FB71FB79AD
:1023B000002B07D0FB79012B04D006484FF4F371B2
:1023C000FEF7AEF8044BFA791A6007F10807BD462C
:1023D00080BD00BF7CBE00081C00204280B586B0D6
:1023E00000AF78600B46FB704FF000033B614FF08D
:1023F0000003FB604FF000037B614FF00003BB6004
:102400007B68012B00F0BA807B68022B00F0B6805D
:102410007B68042B00F0B2807B68082B00F0AE8054
:102420007A688F4B9A4200F0A9807A688D4B9A4265
:1024300000F0A4807A688C4B9A4200F09F807A6802
:102440008A4B9A4200F09A807A68894B9A4200F04F
:1024500095807A68874B9A4200F090807A68864B24
:102460009A4200F08B807A68844B9A4200F0868012
:102470007A68834B9A4200F081807B68B3F5805F75
:102480007CD07B68B3F5EA1F78D07B68B3F5EB1F8F
:1024900074D07B68B3F5004F70D07A68794B9A425C
:1024A0006CD07A68784B9A4268D07A68774B9A42B7
:1024B00064D07A68764B9A4260D07A68754B9A42BB
:1024C0005CD07B68B3F1201F58D07A68724B9A4277
:1024D00054D07A68714B9A4250D07A68704B9A42C5
:1024E0004CD07A686F4B9A4248D07A686E4B9A42C9
:1024F00044D07A686D4B9A4240D07B68B3F5011F97
:102500003CD07A686A4B9A4238D07A68694B9A42D2
:1025100034D07A68684B9A4230D07A68674B9A42D6
:102520002CD07A68664B9A4228D07A68654B9A42DA
:1025300024D07A68644B9A4220D07A68634B9A42DE
:102540001CD07A68624B9A4218D07A68614B9A42E2
:1025500014D07A68604B9A4210D07A685F4B9A42E6
:102560000CD07A685E4B9A4208D07A685D4B9A42EA
:1025700004D05D4840F22A21FDF7D2FFFB78002B02
:1025800007D0FB78012B04D0574840F22B21FDF7F0
:10259000C7FF7B68002B03DA544BDB697B6102E0E9
:1025A000524B5B687B617B6803F470234FEA1343F3
:1025B000BB607B684FEA03434FEA13433B617B6890
:1025C00003F44013B3F5401F0AD17B6923F0706315
:1025D0007B61464B454A526822F070625A6028E09F
:1025E0007B6803F48013002B11D0BB684FF003020B
:1025F00002FA03F3FB60FB686FEA03037A6902EAFD
:1026000003037B617B6943F070637B6111E07B684E
:102610004FEA53534FEA03133A6902FA03F36FEA9E
:1026200003037A6902EA03037B617B6943F0706309
:102630007B61FB78002B0BD07B684FEA53534FEA4A
:1026400003133A6902FA03F37A6942EA03037B61EE
:102650007B68002B4CDA254B7A69DA614BE000BFCE
:10266000100014003000140040001600C0001600D6
:1026700000011800000218000003180000081A00EA
:10268000000C1A00010020000200200004002000BD
:102690000800200010002000400020000001300051
:1026A0000002300000043000001120000020200053
:1026B000010000800200008004000080080000800B
:1026C000100000802000008040000080800000801A
:1026D00000010080000200800004008000080080EB
:1026E00000100080002000807CBE00080000014037
:1026F000034B7A695A6007F11807BD4680BD00BFD9
:102700000000014090B585B000AF02460B46FA715B
:10271000BB714FF00003FB60FB79002B16D0FB79F7
:10272000012B13D0FB79022B10D0FB79032B0DD09A
:10273000FB79042B0AD0FB79052B07D0FB79062BFC
:1027400004D03D4840F26521FDF7EAFEBB79002B3D
:1027500031D0BB79012B2ED0BB79022B2BD0BB798A
:10276000032B28D0BB79042B25D0BB79052B22D095
:10277000BB79062B1FD0BB79072B1CD0BB79082B4C
:1027800019D0BB79092B16D0BB790A2B13D0BB7992
:102790000B2B10D0BB790C2B0DD0BB790D2B0AD095
:1027A000BB790E2B07D0BB790F2B04D0224840F207
:1027B0006621FDF7B5FEBB7903F003034FEA8303FF
:1027C0004FF00F0202FA03F3FB601C4BBA794FEA99
:1027D0009202D2B21949B8794FEA9000C0B200F122
:1027E000020051F82000F9686FEA010100EA0101D6
:1027F00002F1020243F82210104BBA794FEA92021A
:10280000D2B20E49B8794FEA9000C0B200F102008E
:1028100051F82000FC79B97901F003014FEA8101F8
:1028200004FA01F140EA010102F1020243F8221028
:1028300007F11407BD4690BD7CBE000800000140B2
:1028400080B582B000AF78607B68002B07D07B68D2
:10285000012B04D005484FF41E71FDF761FE044BB7
:102860007A681A6007F10807BD4680BD7CBE000883
:10287000DC00204280B400AF154B154A126842F0CC
:1028800001021A60124A124B5968124B01EA030303
:1028900053600F4A0E4B1B6823F0847323F480337C
:1028A00013600B4B0A4A126822F480221A60084B0C
:1028B000074A526822F4FE025A60054B4FF41F0289
:1028C0009A60034B4FF00002DA62BD4680BC70474D
:1028D000001002400000FFF880B582B000AF7860C1
:1028E0007B68002B0CD07B68B3F5803F08D07B68F9
:1028F000B3F5802F04D0154840F21111FDF710FEFA
:10290000134B134A126822F480321A60104B104A9B
:10291000126822F480221A607B68B3F5803F03D0EE
:10292000B3F5802F07D00DE0094B094A126842F435
:1029300080321A6006E0064B054A126842F4A02273
:102940001A6000BF07F10807BD4680BDE4BE00085D
:102950000010024080B582B000AF4FF000033B6032
:102960004FF00003FB714FF00003BB714FF03100DB
:1029700000F0A4FD0346BB713B6803F101033B601B
:102980003B68B3F5A06F02D0BB79002BEED04FF0BF
:10299000310000F093FD0346002B03D04FF00103FC
:1029A000FB7102E04FF00003FB71FB79184607F161
:1029B0000807BD4680BD00BF80B584B000AF0346A8
:1029C000FB714FF00003FB60FB791F2B04D90D480E
:1029D0004FF4A971FDF7A4FD0B4B1B68FB60FB686E
:1029E00023F0F803FB60FB794FEAC303FA6842EA7D
:1029F0000303FB60044BFA681A6007F11007BD4639
:102A000080BD00BFE4BE00080010024080B582B067
:102A100000AF0346FB71FB79002B07D0FB79012B3C
:102A200004D0064840F26511FDF77AFD044BFA79AF
:102A30001A6007F10807BD4680BD00BFE4BE00086C
:102A40000000424280B584B000AF786039604FF03A
:102A50000003FB607B68002B08D07B68B3F5803FE8
:102A600004D02D4840F27F11FDF75AFD3B68002B42
:102A70003CD03B68B3F5802F38D03B68B3F5002FCE
:102A800034D03B68B3F5402F30D03B68B3F5801F9E
:102A90002CD03B68B3F5A01F28D03B68B3F5C01F0E
:102AA00024D03B68B3F5E01F20D03B68B3F5001F8E
:102AB0001CD03B68B3F5101F18D03B68B3F5201F3E
:102AC00014D03B68B3F5301F10D03B68B3F5401FFE
:102AD0000CD03B68B3F5501F08D03B68B3F5601FBE
:102AE00004D00D484FF4C071FDF71AFD0B4B5B6825
:102AF000FB60FB6823F47413FB607A683B6842EA6E
:102B00000303FA6842EA0303FB60044BFA685A6065
:102B100007F11007BD4680BDE4BE0008001002406A
:102B200080B582B000AF0346FB71FB79002B07D064
:102B3000FB79012B04D006484FF4CA71FDF7F0FC75
:102B4000044BFA791A6007F10807BD4680BD00BF43
:102B5000E4BE00086000424280B584B000AF7860F7
:102B600039604FF00003FB607B68002B04D02948DC
:102B700040F2AF11FDF7D4FC3B68002B31D03B682D
:102B8000012B2ED03B68022B2BD03B68032B28D087
:102B90003B68042B25D03B68052B22D03B68062BD5
:102BA0001FD03B68072B1CD03B68082B19D03B6813
:102BB000092B16D03B680A2B13D03B680B2B10D087
:102BC0003B680C2B0DD03B680D2B0AD03B680E2BBD
:102BD00007D03B680F2B04D00E484FF4D871FDF797
:102BE0009FFC0D4BDB6AFB60FB6823F4803323F012
:102BF0000F03FB607A683B6842EA0303FA6842EA23
:102C00000303FB60044BFA68DA6207F11007BD4664
:102C100080BD00BFE4BE00080010024080B584B053
:102C200000AF78604FF00003FB607B68002B0AD098
:102C30007B68012B07D07B68022B04D00B484FF434
:102C40000E71FDF76DFC0A4B5B68FB60FB6823F0BF
:102C50000303FB60FA687B6842EA0303FB60044BF2
:102C6000FA685A6007F11007BD4680BDE4BE00084F
:102C70000010024080B400AF044B5B68DBB203F08D
:102C80000C03DBB21846BD4680BC70470010024002
:102C900080B584B000AF78604FF00003FB607B68C4
:102CA000002B1CD07B68802B19D07B68902B16D012
:102CB0007B68A02B13D07B68B02B10D07B68C02B17
:102CC0000DD07B68D02B0AD07B68E02B07D07B68C7
:102CD000F02B04D00B484FF41971FDF721FC0A4B7F
:102CE0005B68FB60FB6823F0F003FB60FA687B68BD
:102CF00042EA0303FB60044BFA685A6007F11007CD
:102D0000BD4680BDE4BE00080010024080B584B01E
:102D100000AF78604FF00003FB607B68002B14D09D
:102D20007B68B3F5806F10D07B68B3F5A06F0CD0D3
:102D30007B68B3F5C06F08D07B68B3F5E06F04D053
:102D40000B4840F27E21FDF7EBFB0A4B5B68FB6012
:102D5000FB6823F4E063FB60FA687B6842EA0303E4
:102D6000FB60044BFA685A6007F11007BD4680BD4E
:102D7000E4BE00080010024080B584B000AF786067
:102D80004FF00003FB607B68002B14D07B68B3F529
:102D9000806F10D07B68B3F5A06F0CD07B68B3F563
:102DA000C06F08D07B68B3F5E06F04D00C484FF4D7
:102DB0002671FDF7B5FB0B4B5B68FB60FB6823F4EA
:102DC0006053FB607B684FEAC303FA6842EA03037F
:102DD000FB60044BFA685A6007F11007BD4680BDDE
:102DE000E4BE00080010024080B582B000AF024689
:102DF0000B46FA71BB71FB7903F0E003002B02D1A3
:102E0000FB79002B04D1164840F2BF21FDF788FB67
:102E1000BB79002B07D0BB79012B04D010484FF4AD
:102E20003071FDF77DFBBB79002B09D00D4B0D4AAE
:102E30001278D1B2FA7941EA0202D2B21A700BE0EA
:102E4000084B084A1278D1B2FA796FEA0202D2B27C
:102E500001EA0202D2B21A7007F10807BD4680BD2E
:102E6000E4BE00080910024080B582B000AF78606F
:102E70007B68002B07D07B68012B04D0054840F20B
:102E8000DB21FDF74DFB044B7A681A6007F1080758
:102E9000BD4680BDE4BE0008D800424280B584B083
:102EA00000AF78604FF00003FB607B68002B10D010
:102EB0007B68B3F5804F0CD07B68B3F5004F08D02A
:102EC0007B68B3F5404F04D00B4840F20231FDF768
:102ED00027FB0A4B5B68FB60FB6823F44043FB6005
:102EE000FA687B6842EA0303FB60044BFA685A60A5
:102EF00007F11007BD4680BDE4BE00080010024087
:102F000080B582B000AF0346FB71FB79002B0AD07D
:102F1000FB79012B07D0FB79042B04D010484FF428
:102F20005071FDF7FDFA0F4B4FF000021A700D4B78
:102F30004FF000021A70FB79012B02D0042B05D050
:102F400009E0084B4FF001021A7004E0054B4FF006
:102F500005021A7000BF07F10807BD4680BD00BF1B
:102F6000E4BE00082010024080B582B000AF0346E6
:102F7000FB71FB79002B07D0FB79012B04D00648AD
:102F800040F26131FDF7CCFA044BFA791A6007F18F
:102F90000807BD4680BD00BFE4BE00088004424271
:102FA00080B582B000AF78607B68B3F5807F0CD0CD
:102FB0007B68B3F5007F08D07B68B3F5407F04D011
:102FC000074840F27231FDF7ABFA064B054A116A29
:102FD0007A6841EA02021A6207F10807BD4680BD1D
:102FE000E4BE00080010024080B582B000AF034686
:102FF000FB71FB79002B07D0FB79012B04D006482D
:103000004FF46071FDF78CFA044BFA791A6007F1FE
:103010000807BD4680BD00BFE4BE00083C04424234
:1030200080B489B000AF78604FF00003FB614FF0CF
:103030000003BB614FF000037B614FF000033B6175
:103040004FF00003FB60504B5B6803F00C03FB6127
:10305000FB69042B07D0082B09D0002B32D17B68E9
:103060004A4A1A6032E07B68494A1A602EE0464BB1
:103070005B6803F47013BB61434B5B6803F48033FC
:103080007B61BB694FEA934303F10203BB617B6938
:10309000002B06D1BB693E4A02FB03F27B681A6033
:1030A00014E0394BDB6A03F00F0303F10103FB600B
:1030B000374AFB68B2FBF3F3BA6902FB03F27B68A1
:1030C0001A6003E07B68314A1A6000BF2E4B5B68D0
:1030D00003F0F003FB61FB694FEA1313FB612D4A18
:1030E000FB69D3181B78DBB23B617B681A683B69CC
:1030F00022FA03F27B685A60234B5B6803F4E063B7
:10310000FB61FB694FEA1323FB61224AFB69D31879
:103110001B78DBB23B617B685A683B6922FA03F299
:103120007B689A60184B5B6803F46053FB61FB6932
:103130004FEAD323FB61174AFB69D3181B78DBB234
:103140003B617B685A683B6922FA03F27B68DA606C
:103150000D4B5B6803F44043FB61FB694FEA93331B
:10316000FB610D4AFB69D3181B78DBB23B617B68BE
:10317000DA683B69B2FBF3F27B681A6107F1240756
:10318000BD4680BC704700BF0010024000127A00AC
:1031900000093D00080100201801002080B582B020
:1031A00000AF78600B46FB707B6823F4AA6323F0C2
:1031B0000703002B02D17B68002B04D1134840F297
:1031C0002B41FDF7ADF9FB78002B07D0FB78012BE5
:1031D00004D00E4840F22C41FDF7A2F9FB78002BF9
:1031E00007D00B4B0A4A51697A6841EA02025A61D8
:1031F00008E0074B064A51697A686FEA020201EA61
:1032000002025A6107F10807BD4680BDE4BE00080E
:103210000010024080B582B000AF78600B46FB70B2
:103220007A68184B02EA0303002B02D17B68002B5B
:1032300004D1154840F24A41FDF772F9FB78002BA2
:1032400007D0FB78012B04D00F4840F24B41FDF72B
:1032500067F9FB78002B07D00C4B0C4A91697A6810
:1032600041EA02029A6108E0084B084A91697A68CB
:103270006FEA020201EA02029A6107F10807BD46FD
:1032800080BD00BF0200C0FFE4BE00080010024085
:1032900080B582B000AF78600B46FB707A68184B3F
:1032A00002EA0303002B02D17B68002B04D11548EE
:1032B00040F26941FDF734F9FB78002B07D0FB7829
:1032C000012B04D00F4840F26A41FDF729F9FB7841
:1032D000002B07D00C4B0C4AD1697A6841EA0202F4
:1032E000DA6108E0084B084AD1697A686FEA02029D
:1032F00001EA0202DA6107F10807BD4680BD00BF9E
:1033000000360181E4BE00080010024080B582B0A2
:1033100000AF78600B46FB707A68184B02EA030333
:10332000002B02D17B68002B04D1154840F2A44148
:10333000FDF7F6F8FB78002B07D0FB78012B04D0C3
:103340000F4840F2A541FDF7EBF8FB78002B07D0C2
:103350000C4B0C4AD1687A6841EA0202DA6008E054
:10336000084B084AD1687A686FEA020201EA020251
:10337000DA6007F10807BD4680BD00BF0200C0FF4C
:10338000E4BE00080010024080B582B000AF786053
:103390000B46FB707A68184B02EA0303002B02D13C
:1033A0007B68002B04D1154840F2C341FDF7B8F803
:1033B000FB78002B07D0FB78012B04D00F4840F29C
:1033C000C441FDF7ADF8FB78002B07D00C4B0C4A3D
:1033D00011697A6841EA02021A6108E0084B084A5A
:1033E00011697A686FEA020201EA02021A6107F1C2
:1033F0000807BD4680BD00BF00360181E4BE00085D
:103400000010024080B582B000AF0346FB71FB792B
:10341000002B07D0FB79012B04D006484FF49B61A9
:10342000FDF77EF8044BFA791A6007F10807BD46EC
:1034300080BD00BFE4BE00084004424280B582B0B7
:1034400000AF0346FB71FB79002B07D0FB79012B02
:1034500004D0064840F2E541FDF762F8044BFA79E2
:103460001A6007F10807BD4680BD00BFE4BE000832
:103470004C00424280B582B000AF0346FB71FB793D
:10348000002B10D0FB79052B0DD0FB79042B0AD033
:10349000FB79062B07D0FB79072B04D0054840F2B7
:1034A0000551FDF73DF8044BFA791A7007F108074A
:1034B000BD4680BDE4BE00080710024080B586B05E
:1034C00000AF0346FB714FF00003FB604FF00003B9
:1034D0007B614FF00003FB74FB79212B22D0FB7939
:1034E000312B1FD0FB79392B1CD0FB79412B19D004
:1034F000FB79612B16D0FB797A2B13D0FB797B2BD0
:1035000010D0FB797C2B0DD0FB797D2B0AD0FB7979
:103510007E2B07D0FB797F2B04D01A4840F2345120
:10352000FCF7FEFFFB794FEA5313DBB2FB60FB684D
:10353000012B03D1144B1B687B6109E0FB68022B54
:1035400003D1114B1B6A7B6102E00F4B5B6A7B610D
:10355000FB7903F01F03FB60FB687A6922FA03F32F
:1035600003F00103DBB2002B03D04FF00103FB7427
:1035700002E04FF00003FB74FB7C184607F11807CC
:10358000BD4680BDE4BE00080010024080B400AF1C
:10359000044B044A526A42F080725A62BD4680BCB3
:1035A000704700BF0010024080B584B000AF0346F2
:1035B000FB714FF00003FB73FB79012B13D0FB79F8
:1035C000022B10D0FB79042B0DD0FB79082B0AD0ED
:1035D000FB79102B07D0FB79802B04D00C4840F2EC
:1035E0007E51FCF79DFF0B4B9A68FB7902EA0303BF
:1035F000002B03D04FF00103FB7302E04FF00003F8
:10360000FB73FB7B184607F11007BD4680BD00BF6A
:10361000E4BE00080010024080B582B000AF03464F
:10362000FB71FB7903F06003002B02D1FB79002BC7
:1036300004D1064840F2AB51FCF772FF044BFA7913
:103640001A7007F10807BD4680BD00BFE4BE000840
:103650000A10024080B582B000AF78607A68AC4B47
:103660009A4244D07B68B3F1804F40D07A68A94B2E
:103670009A423CD07A68A84B9A4238D07A68A74BD5
:103680009A4234D07A68A64B9A4230D07A68A54BD9
:103690009A422CD07A68A44B9A4228D07A68A34BDD
:1036A0009A4224D07A68A24B9A4220D07A68A14BE1
:1036B0009A421CD07A68A04B9A4218D07A689F4BE5
:1036C0009A4214D07A689E4B9A4210D07A689D4BE9
:1036D0009A420CD07A689C4B9A4208D07A689B4BED
:1036E0009A4204D09A484FF07D01FCF719FF7A689E
:1036F000874B9A420CD14FF400604FF00101FFF765
:1037000005FE4FF400604FF00001FFF7FFFD31E1CF
:103710007B68B3F1804F0CD14FF001004FF00101F5
:10372000FFF732FE4FF001004FF00001FFF72CFED3
:1037300020E17A68774B9A420CD14FF002004FF0AB
:103740000101FFF721FE4FF002004FF00001FFF7EB
:103750001BFE0FE17A68704B9A420CD14FF00400C7
:103760004FF00101FFF710FE4FF004004FF0000191
:10377000FFF70AFEFEE07A68684B9A420CD14FF0E0
:1037800008004FF00101FFF7FFFD4FF008004FF078
:103790000001FFF7F9FDEDE07A68614B9A420CD128
:1037A0004FF010004FF00101FFF7EEFD4FF0100059
:1037B0004FF00001FFF7E8FDDCE07A68594B9A42D0
:1037C0000CD14FF020004FF00101FFF7DDFD4FF06D
:1037D00020004FF00001FFF7D7FDCBE07A68524B95
:1037E0009A420CD14FF400504FF00101FFF78EFDCB
:1037F0004FF400504FF00001FFF788FDBAE07A68FF
:103800004A4B9A420CD14FF400204FF00101FFF7D0
:103810007DFD4FF400204FF00001FFF777FDA9E098
:103820007A68434B9A420CD14FF480104FF001015B
:10383000FFF76CFD4FF480104FF00001FFF766FDBD
:1038400098E07A683B4B9A420CD14FF400104FF04D
:103850000101FFF75BFD4FF400104FF00001FFF78F
:1038600055FD87E07A68344B9A420CD14FF0400006
:103870004FF00101FFF788FD4FF040004FF00001CD
:10388000FFF782FD76E07A682C4B9A420CD14FF01C
:1038900080004FF00101FFF777FD4FF080004FF0FF
:1038A0000001FFF771FD65E07A68254B9A420CD163
:1038B0004FF480704FF00101FFF766FD4FF4807008
:1038C0004FF00001FFF760FD54E07A681D4B9A420B
:1038D0000CD14FF480304FF00101FFF717FD4FF48A
:1038E00080304FF00001FFF711FD43E07A68164B7E
:1038F0009A422FD14FF400304FF00101FFF706FD3F
:103900004FF400304FF00001FFF700FD32E000BF40
:10391000002C01400004004000080040000C004062
:10392000001000400014004000340140004C0140F1
:10393000005001400054014000180040001C0040AD
:103940000020004000400140004401400048014088
:103950004CBF00087A68094B9A420BD14FF4802083
:103960004FF00101FFF7D2FC4FF480204FF000012F
:10397000FFF7CCFC07F10807BD4680BD00480140B9
:1039800080B584B000AF786039604FF00003FB81F0
:103990007A686B4B9A4244D07B68B3F1804F40D039
:1039A0007A68684B9A423CD07A68674B9A4238D022
:1039B0007A68664B9A4234D07A68654B9A4230D026
:1039C0007A68644B9A422CD07A68634B9A4228D02A
:1039D0007A68624B9A4224D07A68614B9A4220D02E
:1039E0007A68604B9A421CD07A685F4B9A4218D032
:1039F0007A685E4B9A4214D07A685D4B9A4210D036
:103A00007A685C4B9A420CD07A685B4B9A4208D039
:103A10007A685A4B9A4204D059484FF0E701FCF7B4
:103A20007FFD3B685B88002B14D03B685B88102BC4
:103A300010D03B685B88202B0CD03B685B88402B08
:103A400008D03B685B88602B04D04D484FF0E801FC
:103A5000FCF766FD3B68DB88002B0ED03B68DB88FB
:103A6000B3F5807F09D03B68DB88B3F5007F04D0D5
:103A700043484FF0E901FCF753FD7B681B88FB814D
:103A80007A682F4B9A4213D07A68334B9A420FD000
:103A90007B68B3F1804F0BD07A682A4B9A4207D0EB
:103AA0007A68294B9A4203D07A68284B9A4209D106
:103AB000FB8923F07003FB813B685A88FB8942EA4B
:103AC0000303FB817A68224B9A420DD07A68214B1E
:103AD0009A4209D0FB8923F44073FB813B68DA8862
:103AE000FB8942EA0303FB817B68FA891A803B6801
:103AF0009A887B689A853B681A887B681A857A68F9
:103B00000F4B9A420FD07A68134B9A420BD07A68C7
:103B1000184B9A4207D07A68174B9A4203D07A68BA
:103B2000164B9A4204D13B681B7A1A467B681A8668
:103B30007B684FF001029A8207F11007BD4680BDF5
:103B4000002C01400004004000080040000C004030
:103B5000001000400014004000340140004C0140BF
:103B6000005001400054014000180040001C00407B
:103B70000020004000400140004401400048014056
:103B80004CBF000880B584B000AF786039604FF05A
:103B900000037B814FF00003FB814FF00003BB81EA
:103BA0007A68784B9A423CD07B68B3F1804F38D02A
:103BB0007A68754B9A4234D07A68744B9A4230D006
:103BC0007A68734B9A422CD07A68724B9A4228D00A
:103BD0007A68714B9A4224D07A68704B9A4220D00E
:103BE0007A686F4B9A421CD07A686E4B9A4218D012
:103BF0007A686D4B9A4214D07A686C4B9A4210D016
:103C00007A686B4B9A420CD07A686A4B9A4208D019
:103C10007A68694B9A4204D068484FF48E71FCF779
:103C20007FFC3B681B88002B18D03B681B88102B3F
:103C300014D03B681B88202B10D03B681B88302B8E
:103C40000CD03B681B88602B08D03B681B88702B0E
:103C500004D05A4840F21D11FCF762FC3B685B88B7
:103C6000002B08D03B685B88012B04D053484FF4ED
:103C70008F71FCF755FC3B681B89002B08D03B6813
:103C80001B89022B04D04D4840F21F11FCF748FC61
:103C90007B681B8C9BB223F001039AB27B681A8469
:103CA0007B681B8CFB817B689B88BB817B681B8B43
:103CB0007B817B8923F070037B817B8923F0030365
:103CC0007B813B681A887B8942EA03037B81FB89FD
:103CD00023F00203FB813B681A89FB8942EA030354
:103CE000FB813B685A88FB8942EA0303FB817A68BF
:103CF000244B9A420FD07A68264B9A420BD07A68AE
:103D00002B4B9A4207D07A682A4B9A4203D07A68A2
:103D1000294B9A427CD13B689B88002B08D03B689A
:103D20009B88042B04D025484FF49E71FCF7F8FBC8
:103D30003B685B89002B08D03B685B89082B04D06B
:103D40001E4840F23D11FCF7EBFB3B68DB89B3F505
:103D5000007F08D03B68DB89002B04D017484FF464
:103D60009F71FCF7DDFB3B689B89B3F5807F27D013
:103D70003B689B89002B23D0104840F23F11FCF791
:103D8000CFFB1DE0002C0140000400400008004073
:103D9000000C004000340140004C01400050014044
:103DA0000054014000180040001C0040002000406A
:103DB0000040014000440140004801404CBF000861
:103DC000FB8923F00803FB813B685A89FB8942EA9F
:103DD0000303FB81FB8923F00403FB813B689A8882
:103DE000FB8942EA0303FB81BB8923F48073BB8117
:103DF000BB8923F40073BB813B689A89BB8942EA83
:103E00000303BB813B68DA89BB8942EA0303BB81B8
:103E10007B68BA899A807B687A891A833B68DA88DA
:103E20007B689A867B68FA891A8407F11007BD4679
:103E300080BD00BF80B584B000AF786039604FF0BE
:103E400000037B814FF00003FB814FF00003BB8137
:103E50007A68854B9A4224D07B68B3F1804F20D09A
:103E60007A68824B9A421CD07A68814B9A4218D069
:103E70007A68804B9A4214D07A687F4B9A4210D06D
:103E80007A687E4B9A420CD07A687D4B9A4208D071
:103E90007A687C4B9A4204D07B4840F26F11FCF761
:103EA0003FFB3B681B88002B18D03B681B88102BFE
:103EB00014D03B681B88202B10D03B681B88302B0C
:103EC0000CD03B681B88602B08D03B681B88702B8C
:103ED00004D06D484FF4B871FCF722FB3B685B8857
:103EE000002B08D03B685B88012B04D0664840F269
:103EF0007111FCF715FB3B681B89002B08D03B6850
:103F00001B89022B04D060484FF4B971FCF708FB01
:103F10007B681B8C9BB223F010039AB27B681A84D7
:103F20007B681B8CFB817B689B88BB817B681B8BC0
:103F30007B817B8923F4E0437B817B8923F440737D
:103F40007B813B681B884FEA03239AB27B8942EA54
:103F500003037B81FB8923F02003FB813B681B89E2
:103F60004FEA03139AB2FB8942EA0303FB813B68E1
:103F70005B884FEA03139AB2FB8942EA0303FB8191
:103F80007A68394B9A4203D07A683B4B9A427DD18A
:103F90003B689B88002B08D03B689B88042B04D08F
:103FA000394840F28F11FCF7BBFA3B685B89002B64
:103FB00008D03B685B89082B04D033484FF4C871A4
:103FC000FCF7AEFA3B68DB89B3F5007F08D03B68AD
:103FD000DB89002B04D02C4840F29111FCF7A0FAA9
:103FE0003B689B89B3F5807F08D03B689B89002B99
:103FF00004D025484FF4C971FCF792FAFB8923F0ED
:104000008003FB813B685B894FEA03139AB2FB890B
:1040100042EA0303FB81FB8923F04003FB813B68F9
:104020009B884FEA03139AB2FB8942EA0303FB81A0
:10403000BB8923F48063BB81BB8923F40063BB810C
:104040003B689B894FEA83039AB2BB8942EA030328
:10405000BB813B68DB894FEA83039AB2BB8942EAA2
:104060000303BB8112E000BF002C014000040040AC
:1040700000080040000C004000340140004C0140AA
:1040800000180040004001404CBF00087B68BA891E
:104090009A807B687A891A833B68DA887B681A87FA
:1040A0007B68FA891A8407F11007BD4680BD00BFFE
:1040B00080B584B000AF786039604FF000037B8139
:1040C0004FF00003FB814FF00003BB817A68854B02
:1040D0009A4218D07B68B3F1804F14D07A68824B33
:1040E0009A4210D07A68814B9A420CD07A68804B01
:1040F0009A4208D07A687F4B9A4204D07E4840F2B8
:10410000C111FCF70DFA3B681B88002B18D03B68E7
:104110001B88102B14D03B681B88202B10D03B68C9
:104120001B88302B0CD03B681B88602B08D03B6869
:104130001B88702B04D070484FF4E171FCF7F0F944
:104140003B685B88002B08D03B685B88012B04D060
:10415000694840F2C311FCF7E3F93B681B89002B67
:1041600008D03B681B89022B04D063484FF4E271EE
:10417000FCF7D6F97B681B8C9BB223F480739AB250
:104180007B681A847B681B8CFB817B689B88BB8166
:104190007B689B8B7B817B8923F070037B817B8990
:1041A00023F003037B813B681A887B8942EA03037F
:1041B0007B81FB8923F40073FB813B681B894FEAF9
:1041C00003239AB2FB8942EA0303FB813B685B88C5
:1041D0004FEA03239AB2FB8942EA0303FB817A6820
:1041E000404B9A4203D07A68424B9A4269D13B686D
:1041F0009B88002B08D03B689B88042B04D03E484A
:104200004FF4F071FCF78CF93B685B89002B08D008
:104210003B685B89082B04D0374840F2E111FCF77A
:104220007FF93B68DB89B3F5007F08D03B68DB8909
:10423000002B04D030484FF4F171FCF771F93B6862
:104240009B89B3F5807F08D03B689B89002B04D005
:10425000294840F2E311FCF763F9FB8923F400637A
:10426000FB813B685B894FEA03239AB2FB8942EAF0
:104270000303FB81FB8923F48063FB813B689B88FC
:104280004FEA03239AB2FB8942EA0303FB81BB890D
:1042900023F48053BB81BB8923F40053BB813B686B
:1042A0009B894FEA03139AB2BB8942EA0303BB819D
:1042B0003B68DB894FEA03139AB2BB8942EA0303E6
:1042C000BB817B68BA899A807B687A899A833B68CC
:1042D000DA887B689A877B68FA891A8407F1100765
:1042E000BD4680BD002C0140000400400008004095
:1042F000000C0040003401404CBF000880B584B081
:1043000000AF786039604FF00003BB814FF00003CD
:104310007B814FF00003FB817A68604B9A4218D092
:104320007B68B3F1804F14D07A685D4B9A4210D00D
:104330007A685C4B9A420CD07A685B4B9A4208D000
:104340007A685A4B9A4204D059484FF40471FCF7EA
:10435000E7F83B681B88002B18D03B681B88102BA4
:1043600014D03B681B88202B10D03B681B88302B57
:104370000CD03B681B88602B08D03B681B88702BD7
:1043800004D04B4840F21121FCF7CAF83B685B8827
:10439000002B08D03B685B88012B04D0444840F2D6
:1043A0001221FCF7BDF83B681B89002B08D03B6845
:1043B0001B89022B04D03E4840F21321FCF7B0F8D1
:1043C0007B681B8C9BB223F480539AB27B681A845F
:1043D0007B681B8C7B817B689B88FB817B689B8BCC
:1043E000BB81BB8923F4E043BB81BB8923F44073C9
:1043F000BB813B681B884FEA03239AB2BB8942EA20
:104400000303BB817B8923F400537B813B681B89B9
:104410004FEA03339AB27B8942EA03037B813B680C
:104420005B884FEA03339AB27B8942EA03037B81BC
:104430007A681A4B9A4203D07A681C4B9A421AD176
:104440003B689B89B3F5807F08D03B689B89002B34
:1044500004D017484FF40C71FCF762F8FB8923F481
:104460008043FB813B689B894FEA83139AB2FB89A7
:1044700042EA0303FB817B68FA899A807B68BA89E8
:104480009A833B68DA887B68A3F840207B687A8946
:104490001A8407F11007BD4680BD00BF002C014003
:1044A0000004004000080040000C004000340140BF
:1044B0004CBF000880B582B000AF786039603B68BF
:1044C0001B88002B10D03B681B88042B0CD03B684A
:1044D0001B88082B08D03B681B880C2B04D07E4817
:1044E00040F24E21FCF71CF83B689B88012B0CD056
:1044F0003B689B88022B08D03B689B88032B04D029
:10450000754840F24F21FCF70BF83B68DB88002B25
:1045100010D03B68DB88042B0CD03B68DB88082B71
:1045200008D03B68DB880C2B04D06B484FF4147127
:10453000FBF7F6FF3B681B890F2B04D9664840F256
:104540005121FBF7EDFF7A68644B9A4213D07A68E9
:10455000634B9A420FD07B68B3F1804F0BD07A68DF
:10456000604B9A4207D07A685F4B9A4203D07A68D0
:104570005E4B9A420DD13B685B88002B1AD03B689A
:104580005B88022B16D0544840F25621FBF7C8FF37
:1045900010E03B685B88002B0CD03B685B88022BEB
:1045A00008D03B685B880A2B04D04B4840F25A2164
:1045B000FBF7B6FF3B681B88002B50D17A68474B4E
:1045C0009A423CD07B68B3F1804F38D07A68454B33
:1045D0009A4234D07A68444B9A4230D07A68434B3E
:1045E0009A422CD07A683E4B9A4228D07A68404B47
:1045F0009A4224D07A683F4B9A4220D07A683E4B48
:104600009A421CD07A683D4B9A4218D07A683C4B4B
:104610009A4214D07A683B4B9A4210D07A683A4B4F
:104620009A420CD07A68394B9A4208D07A68384B53
:104630009A4204D0284840F25E21FBF771FF3B68A4
:1046400059883B689A883B681B89786804F0DEFAD1
:104650003B68DB887868194603F01AFCB7E03B68D2
:104660001B88042B56D17A681C4B9A4224D07B6855
:10467000B3F1804F20D07A681A4B9A421CD07A68E6
:10468000194B9A4218D07A68184B9A4214D07A681B
:10469000134B9A4210D07A68154B9A420CD07A6824
:1046A000164B9A4208D07A68174B9A4204D00A48AF
:1046B0004FF41A71FBF734FF3B6859883B689A88BE
:1046C0003B681B89786804F013FB3B68DB887868DB
:1046D000194603F069FC7AE04CBF0008002C014049
:1046E000003401400004004000080040000C00407D
:1046F000004C0140005001400054014000180040AF
:10470000001C0040002000400040014000440140E7
:10471000004801403B681B88082B2CD17A682E4B3F
:104720009A4218D07B68B3F1804F14D07A682B4B33
:104730009A4210D07A682A4B9A420CD07A68294B58
:104740009A4208D07A68284B9A4204D0274840F20F
:104750007221FBF7E5FE3B6859883B689A883B6805
:104760001B89786804F044FB3B68DB88786819464D
:1047700003F084FC2BE07A68174B9A4218D07B68D0
:10478000B3F1804F14D07A68144B9A4210D07A68F3
:10479000134B9A420CD07A68124B9A4208D07A682E
:1047A000114B9A4204D011484FF41F71FBF7B8FE29
:1047B0003B6859883B689A883B681B89786804F095
:1047C0008FFB3B68DB887868194603F0ADFC07F186
:1047D0000807BD4680BD00BF002C0140000400401A
:1047E00000080040000C0040003401404CBF0008AD
:1047F00080B584B000AF786039604FF00003FB8172
:104800004FF00103BB817A683F4B9A4224D07B680A
:10481000B3F1804F20D07A683C4B9A421CD07A6822
:104820003B4B9A4218D07A683A4B9A4214D07A6835
:10483000394B9A4210D07A68384B9A420CD07A6839
:10484000374B9A4208D07A68364B9A4204D03648A1
:1048500040F29321FBF764FE3B685B88002B03D199
:104860004FF00203FB8102E04FF00003FB813B6845
:104870009B88012B03D14FF00203BB8102E04FF074
:104880000103BB813B681B88002B1CD13B68598806
:104890003B689A883B681B89786804F0B7F93B68E5
:1048A000DB887868194603F0F3FA3B681B89F989BD
:1048B000BA89786804F01CFA3B68DB887868194686
:1048C00003F072FB1BE03B6859883B689A883B68A1
:1048D0001B89786804F00CFA3B68DB887868194615
:1048E00003F062FB3B681B89F989BA89786804F098
:1048F0008DF93B68DB887868194603F0C9FA07F13F
:104900001007BD4680BD00BF002C014000040040E0
:1049100000080040000C004000340140004C014001
:1049200000180040004001404CBF000880B582B034
:1049300000AF786039607A684E4B9A4214D07A683A
:104940004D4B9A4210D07A684C4B9A420CD07A6800
:104950004B4B9A4208D07A684A4B9A4204D04A4854
:1049600040F2CB21FBF7DCFD3B681B88B3F5006F01
:1049700008D03B681B88002B04D043484FF43371A8
:10498000FBF7CEFD3B685B88B3F5806F08D03B68D2
:104990005B88002B04D03C4840F2CD21FBF7C0FDE2
:1049A0003B689B88002B13D03B689B88B3F5807FC6
:1049B0000ED03B689B88B3F5007F09D03B689B888D
:1049C000B3F5407F04D0304840F2CE21FBF7A8FD7C
:1049D0003B681B89B3F5805F08D03B681B89002BBF
:1049E00004D0294840F2CF21FBF79AFD3B685B8950
:1049F000002B09D03B685B89B3F5005F04D02248E7
:104A00004FF43471FBF78CFD3B689B89B3F5804F05
:104A100008D03B689B89002B04D01B4840F2D12171
:104A2000FBF77EFD3B681A883B685B8842EA03031C
:104A30009AB23B689B8842EA03039AB23B68DB88E0
:104A400042EA03039AB23B681B8942EA03039AB223
:104A50003B685B8942EA03039AB23B689B8942EA5E
:104A600003039AB27B68A3F8442007F10807BD4608
:104A700080BD00BF002C01400034014000400140D7
:104A800000440140004801404CBF000880B483B09E
:104A900000AF78607B684FF6FF729A807B684FF0BA
:104AA00000021A807B684FF00002DA807B684FF0CA
:104AB00000025A807B684FF000021A7207F10C075F
:104AC000BD4680BC704700BF80B483B000AF786043
:104AD0007B684FF000021A807B684FF000025A801A
:104AE0007B684FF000029A807B684FF00002DA800A
:104AF0007B684FF000021A817B684FF000025A81F8
:104B00007B684FF000029A817B684FF00002DA81E7
:104B100007F10C07BD4680BC704700BF80B483B06E
:104B200000AF78607B684FF000021A807B684FF01E
:104B300000025A807B684FF001029A807B684FF038
:104B40000002DA807B684FF000021A8107F10C073F
:104B5000BD4680BC704700BF80B483B000AF7860B2
:104B60007B684FF000021A807B684FF000025A8089
:104B70007B684FF000029A807B684FF00002DA8079
:104B80007B684FF000021A817B684FF000025A8167
:104B90007B684FF000029A8107F10C07BD4680BC8C
:104BA000704700BF80B582B000AF78600B46FB70E5
:104BB0007A68354B9A4244D07B68B3F1804F40D03D
:104BC0007A68324B9A423CD07A68314B9A4238D05C
:104BD0007A68304B9A4234D07A682F4B9A4230D060
:104BE0007A682E4B9A422CD07A682D4B9A4228D064
:104BF0007A682C4B9A4224D07A682B4B9A4220D068
:104C00007A682A4B9A421CD07A68294B9A4218D06B
:104C10007A68284B9A4214D07A68274B9A4210D06F
:104C20007A68264B9A420CD07A68254B9A4208D073
:104C30007A68244B9A4204D0234840F22931FBF78A
:104C40006FFCFB78002B07D0FB78012B04D01E48AB
:104C500040F22A31FBF764FCFB78002B08D07B681C
:104C60001B889BB243F001039AB27B681A8007E06D
:104C70007B681B889BB223F001039AB27B681A8081
:104C800007F10807BD4680BD002C0140000400402C
:104C900000080040000C00400010004000140040DC
:104CA00000340140004C01400050014000540140DC
:104CB00000180040001C004000200040004001405F
:104CC00000440140004801404CBF000880B582B05C
:104CD00000AF78600B46FB707A68214B9A4214D083
:104CE0007A68204B9A4210D07A681F4B9A420CD0B7
:104CF0007A681E4B9A4208D07A681D4B9A4204D0BB
:104D00001C4840F24231FBF70BFCFB78002B07D02C
:104D1000FB78012B04D0174840F24331FBF700FC2D
:104D2000FB78002B0CD07B68B3F844309BB26FEA61
:104D300043436FEA53439AB27B68A3F844200BE0E5
:104D40007B68B3F844309BB24FEA43434FEA534386
:104D50009AB27B68A3F8442007F10807BD4680BDDE
:104D6000002C01400034014000400140004401405B
:104D7000004801404CBF000880B582B000AF7860A9
:104D800013460A467A807B707A683E4B9A4244D03A
:104D90007B68B3F1804F40D07A683B4B9A423CD05D
:104DA0007A683A4B9A4238D07A68394B9A4234D072
:104DB0007A68384B9A4230D07A68374B9A422CD076
:104DC0007A68364B9A4228D07A68354B9A4224D07A
:104DD0007A68344B9A4220D07A68334B9A421CD07E
:104DE0007A68324B9A4218D07A68314B9A4214D082
:104DF0007A68304B9A4210D07A682F4B9A420CD086
:104E00007A682E4B9A4208D07A682D4B9A4204D089
:104E10002C4840F26B31FBF783FB7B8803F47F4324
:104E2000002B02D17B88002B04D126484FF45B7104
:104E3000FBF776FB7B78002B07D07B78012B04D027
:104E4000204840F26D31FBF76BFB7B78002B09D0DB
:104E50007B689B899AB27B8842EA03039AB27B689B
:104E60009A810BE07B689B899AB27B886FEA030387
:104E70009BB202EA03039AB27B689A8107F10807A2
:104E8000BD4680BD002C01400004004000080040E9
:104E9000000C0040001000400014004000340140AD
:104EA000004C0140005001400054014000180040F7
:104EB000001C004000200040004001400044014030
:104EC000004801404CBF000880B582B000AF786058
:104ED0000B467B807A682E4B9A4244D07B68B3F1B4
:104EE000804F40D07A682B4B9A423CD07A682A4B4C
:104EF0009A4238D07A68294B9A4234D07A68284B43
:104F00009A4230D07A68274B9A422CD07A68264B46
:104F10009A4228D07A68254B9A4224D07A68244B4A
:104F20009A4220D07A68234B9A421CD07A68224B4E
:104F30009A4218D07A68214B9A4214D07A68204B52
:104F40009A4210D07A681F4B9A420CD07A681E4B56
:104F50009A4208D07A681D4B9A4204D01C484FF4FC
:104F60006471FBF7DDFA7B8803F47F43002B02D1E9
:104F70007B88002B04D1164840F29131FBF7D0FA20
:104F80007B687A889A8207F10807BD4680BD00BF1A
:104F9000002C01400004004000080040000C0040CC
:104FA000001000400014004000340140004C01405B
:104FB000005001400054014000180040001C004017
:104FC00000200040004001400044014000480140F2
:104FD0004CBF000880B582B000AF786013460A4627
:104FE0007A803B807A685F4B9A4224D07B68B3F129
:104FF000804F20D07A685C4B9A421CD07A685B4B19
:105000009A4218D07A685A4B9A4214D07A68594B0F
:105010009A4210D07A68584B9A420CD07A68574B13
:105020009A4208D07A68564B9A4204D055484FF4B9
:105030006B71FBF775FA7B88002B3AD07B88012BCC
:1050400037D07B88022B34D07B88032B31D07B88F0
:10505000042B2ED07B88052B2BD07B88062B28D0C9
:105060007B88072B25D07B88082B22D07B88092BB7
:105070001FD07B880A2B1CD07B880B2B19D07B88F8
:105080000C2B16D07B880D2B13D07B880E2B10D0C9
:105090007B880F2B0DD07B88102B0AD07B88112B9F
:1050A00007D07B88122B04D0364840F2AD31FBF795
:1050B00037FA3B88002B48D03B88B3F5807F44D03B
:1050C0003B88B3F5007F40D03B88B3F5407F3CD0B0
:1050D0003B88B3F5806F38D03B88B3F5A06F34D0F0
:1050E0003B88B3F5C06F30D03B88B3F5E06F2CD070
:1050F0003B88B3F5006F28D03B88B3F5106F24D000
:105100003B88B3F5206F20D03B88B3F5306F1CD0BF
:105110003B88B3F5406F18D03B88B3F5506F14D07F
:105120003B88B3F5606F10D03B88B3F5706F0CD03F
:105130003B88B3F5805F08D03B88B3F5885F04D027
:10514000104840F2AE31FBF7EBF97A883B8842EA2F
:1051500003039AB27B68A3F8482007F10807BD460D
:1051600080BD00BF002C014000040040000800404A
:10517000000C004000340140004001400044014068
:10518000004801404CBF000880B582B000AF786095
:1051900013460A467A807B707A68334B9A422CD049
:1051A0007B68B3F1804F28D07A68304B9A4224D084
:1051B0007A682F4B9A4220D07A682E4B9A421CD0A4
:1051C0007A682D4B9A4218D07A682C4B9A4214D0A8
:1051D0007A682B4B9A4210D07A682A4B9A420CD0AC
:1051E0007A68294B9A4208D07A68284B9A4204D0B0
:1051F000274840F2C731FBF793F97A8848F2FF035A
:1052000002EA0303002B02D17B88002B04D1204843
:105210004FF47271FBF784F97B78002B07D07B7811
:10522000012B04D01A4840F2C931FBF779F97B7899
:10523000002B09D07B689B899AB27B8842EA0303E2
:105240009AB27B689A810BE07B689B899AB27B88D3
:105250006FEA03039BB202EA03039AB27B689A8166
:1052600007F10807BD4680BD002C01400004004046
:1052700000080040000C00400010004000140040F6
:10528000003401400040014000440140004801401A
:105290004CBF000880B582B000AF78607A681A4BC6
:1052A0009A4224D07B68B3F1804F20D07A68174BA4
:1052B0009A421CD07A68164B9A4218D07A68154BDD
:1052C0009A4214D07A68144B9A4210D07A68134BE1
:1052D0009A420CD07A68124B9A4208D07A68114BE5
:1052E0009A4204D010484FF47871FBF719F97B68A3
:1052F0001B899BB223F007039AB27B681A8107F1DE
:105300000807BD4680BD00BF002C014000040040DE
:1053100000080040000C004000340140004C0140F7
:1053200000180040004001404CBF000880B582B02A
:1053300000AF78600B467B807A68254B9A4224D078
:105340007B68B3F1804F20D07A68224B9A421CD000
:105350007A68214B9A4218D07A68204B9A4214D02E
:105360007A681F4B9A4210D07A681E4B9A420CD032
:105370007A681D4B9A4208D07A681C4B9A4204D036
:105380001B4840F2F331FBF7CBF87B88002B0DD0A4
:105390007B88102B0AD07B88202B07D07B88302B72
:1053A00004D013484FF47D71FBF7BAF87B88786816
:1053B000194600F0E9FA7B681B899BB243F00703AA
:1053C0009AB27B681A8107F10807BD4680BD00BF0D
:1053D000002C01400004004000080040000C004088
:1053E00000340140004C01400018004000400140E2
:1053F0004CBF000880B584B000AFF86079813A8175
:10540000FB80FA68364B9A4224D0FB68B3F1804F98
:1054100020D0FA68334B9A421CD0FA68324B9A4239
:1054200018D0FA68314B9A4214D0FA68304B9A423D
:1054300010D0FA682F4B9A420CD0FA682E4B9A4241
:1054400008D0FA682D4B9A4204D02D4840F20F4103
:10545000FBF766F87B89502B0AD07B89602B07D03D
:105460007B89402B04D026484FF48261FBF758F823
:105470003B89002B07D03B89022B04D0204840F207
:105480001141FBF74DF8FB880F2B04D91C4840F263
:105490001241FBF745F87B89602B08D13A89FB88DC
:1054A000F86811464FF0010203F022FC07E03A8948
:1054B000FB88F86811464FF0010203F0A7FB7B89D7
:1054C000F868194600F060FAFB681B899BB243F04C
:1054D00007039AB2FB681A8107F11007BD4680BD29
:1054E000002C01400004004000080040000C004077
:1054F00000340140004C01400018004000400140D1
:105500004CBF000880B586B000AFF86079813A8161
:10551000FB804FF00003FB82FA68324B9A4218D0AE
:10552000FB68B3F1804F14D0FA682F4B9A4210D029
:10553000FA682E4B9A420CD0FA682D4B9A4208D04A
:10554000FA682C4B9A4204D02B484FF48761FAF743
:10555000E7FF7B89002B10D07B89B3F5805F0CD0EF
:105560007B89B3F5005F08D07B89B3F5405F04D039
:10557000214840F23941FAF7D3FF3B89B3F5004F98
:1055800007D03B89002B04D01B4840F23A41FAF780
:10559000C7FFFB880F2B04D9174840F23B41FAF7AD
:1055A000BFFF79893A89FB88F86800F091F8FB68B9
:1055B0001B89FB82FB8A23F00703FB82FB8A43F0F3
:1055C0000703FB82FB8A23F07003FB82FB8A43F014
:1055D0007003FB82FB68FA8A1A8107F11807BD463F
:1055E00080BD00BF002C01400004004000080040C6
:1055F000000C0040003401404CBF000880B584B06E
:1056000000AFF86079813A81FB80FA682A4B9A42B0
:1056100018D0FB68B3F1804F14D0FA68274B9A4238
:1056200010D0FA68264B9A420CD0FA68254B9A4261
:1056300008D0FA68244B9A4204D0244840F26141D1
:10564000FAF76EFF7B89002B10D07B89B3F5805F62
:105650000CD07B89B3F5005F08D07B89B3F5405F40
:1056600004D01A4840F26241FAF75AFF3B89B3F579
:10567000004F07D03B89002B04D0144840F263410F
:10568000FAF74EFFFB880F2B04D9104840F2644113
:10569000FAF746FF79893A89FB88F86800F018F82C
:1056A000FB681B899BB243F480439AB2FB681A8162
:1056B00007F11007BD4680BD002C014000040040EA
:1056C00000080040000C0040003401404CBF0008BE
:1056D00080B586B000AFF86079813A81FB804FF0E9
:1056E0000003FB82FA68314B9A4218D0FB68B3F191
:1056F000804F14D0FA682E4B9A4210D0FA682D4B86
:105700009A420CD0FA682C4B9A4208D0FA682B4B7C
:105710009A4204D02A4840F28141FAF701FF7B897E
:10572000002B10D07B89B3F5805F0CD07B89B3F55B
:10573000005F08D07B89B3F5405F04D0204840F279
:105740008241FAF7EDFE3B89B3F5004F07D03B8964
:10575000002B04D01A4840F28341FAF7E1FEFB889F
:105760000F2B04D9164840F28441FAF7D9FEFB68A2
:105770001B89FB82FB8A03F0FF03FB82FB884FEA55
:1057800003239AB23B8942EA03039AB27B8942EA35
:1057900003039AB2FB8A42EA0303FB82FB68FA8A9C
:1057A0001A8107F11807BD4680BD00BF002C0140DB
:1057B0000004004000080040000C0040003401409C
:1057C0004CBF000880B582B000AF786013460A462F
:1057D0007A803B807A682E4B9A4244D07B68B3F142
:1057E000804F40D07A682B4B9A423CD07A682A4B43
:1057F0009A4238D07A68294B9A4234D07A68284B3A
:105800009A4230D07A68274B9A422CD07A68264B3D
:105810009A4228D07A68254B9A4224D07A68244B41
:105820009A4220D07A68234B9A421CD07A68224B45
:105830009A4218D07A68214B9A4214D07A68204B49
:105840009A4210D07A681F4B9A420CD07A681E4B4D
:105850009A4208D07A681D4B9A4204D01C4840F204
:105860009B41FAF75DFE3B88002B07D03B88012B5C
:1058700004D0174840F29C41FAF752FE7B687A88C0
:105880001A857B683A889A8207F10807BD4680BD71
:10589000002C01400004004000080040000C0040C3
:1058A000001000400014004000340140004C014052
:1058B000005001400054014000180040001C00400E
:1058C00000200040004001400044014000480140E9
:1058D0004CBF000880B584B000AF78600B467B8079
:1058E0004FF00003FB817A68214B9A4218D07B6805
:1058F000B3F1804F14D07A681E4B9A4210D07A6868
:105900001D4B9A420CD07A681C4B9A4208D07A6898
:105910001B4B9A4204D01B4840F2B341FAF700FEF9
:105920007B88002B10D07B88102B0DD07B88202B00
:105930000AD07B88402B07D07B88602B04D011488D
:1059400040F2B441FAF7ECFD7B681B88FB81FB89D0
:1059500023F07003FB81FA897B8842EA0303FB8111
:105960007B68FA891A8007F11007BD4680BD00BF29
:10597000002C01400004004000080040000C0040E2
:10598000003401404CBF000880B584B000AF78609F
:105990000B467B804FF00003FB817A682B4B9A42C9
:1059A00024D07B68B3F1804F20D07A68284B9A428C
:1059B0001CD07A68274B9A4218D07A68264B9A42B4
:1059C00014D07A68254B9A4210D07A68244B9A42B8
:1059D0000CD07A68234B9A4208D07A68224B9A42BC
:1059E00004D0224840F2D141FAF79AFD7B88002B7F
:1059F00019D07B88102B16D07B88202B13D07B8866
:105A0000302B10D07B88402B0DD07B88502B0AD0B8
:105A10007B88602B07D07B88702B04D0134840F222
:105A2000D241FAF77DFD7B681B89FB81FB8923F05E
:105A30007003FB81FA897B8842EA0303FB817B6860
:105A4000FA891A8107F11007BD4680BD002C01407C
:105A50000004004000080040000C004000340140F9
:105A6000004C014000180040004001404CBF0008BD
:105A700080B586B000AFF86079813A81FB804FF045
:105A80000003FB824FF00003BB824FF000037B82D8
:105A9000FA683F4B9A421CD0FB68B3F1804F18D094
:105AA000FA683C4B9A4214D0FA683B4B9A4210D0A9
:105AB000FA683A4B9A420CD0FA68394B9A4208D0AD
:105AC000FA68384B9A4204D037484FF49F61FAF78E
:105AD00027FD7B89012B0AD07B89022B07D07B898C
